:060000000A128A11142906
:10000800F000030EF1000B1849210B1953210C18AD
:1000180097218C18B321710E8300F00E700E090021
:100200008A010A140F3982073F3406345B344F34B5
:1002100066346D347D3407347F346F3477347C3406
:1002200039345E3479347134CE22D522ED22242340
:10023000F72202230A23201421140A30AF00B80049
:10024000C100031100302902031D27292414812233
:100250002718D721A718E3212719EF21CD219D22A7
:100260002F08FB212B080021B0002A080021B10033
:100270003808FB212B080021B9002A080021BA0008
:100280004108FB212B080021C2002A080021C300DD
:10029000212903138312061C2714861CA714061D8C
:1002A00027150B1008000313831218238801201848
:1002B0006729A0186D2920197329A0197929201AF6
:1002C0007F29A01A8529201B8B29A01B91292D0885
:1002D000870008142010A01408002E088700881436
:1002E000A010201508003008870008152011A0155F
:1002F0000800310887008815A01120160800390869
:10030000870008162012A01608003A0887008816F1
:10031000A012201708004208870008172013A01712
:100320000800430887008817A0132014080003134F
:1003300083121C23AF030311FF302F02031DA229D8
:100340000A30AF00B8030311FF303802031DAA2999
:100350000A30B800C1030311FF304102031DB22966
:100360000A30C10008008C10221DBC29A30A231CDE
:100370000514231805100800A21DC429A30A231C74
:100380008514231885100800221ECC29A30A231CDB
:100390000515231805110800080040084907B60094
:1003A00037084907BF0037084007C8000800031393
:1003B0008312A80A031105302802031DE129003029
:1003C000A8002710080003138312A90A031115308F
:1003D0002902031DED290A30A900A7100800031304
:1003E0008312A903031109302902031DF9291430CE
:1003F000A90027110800AB01AA010310AA000A30C6
:10040000AB0AAA020318002AAB03AA070800FB21C3
:10041000AC002B080021AD002A080021AE00080026
:10042000AD01AE0186120613861308003708B50029
:10043000241C1D2A0F30A9002410A41486160613AC
:1004400086132908B400B700072208004008BE0040
:10045000A41C2D2A0F30A900A410241586120617FB
:1004600086132908BD00C000072208004908C700FC
:10047000241D3D2A0F30A9002411241486120613CE
:1004800086172908C600C900072208008616061725
:1004900086174030AD00AE00A7185A2227196322F4
:1004A0000510851005118511051285120513851398
:1004B000861108006C223708AF004008B8004908D0
:1004C000C100A80108006C223508AF003E08B80042
:1004D0004708C100A8010800051785178615403098
:1004E000B000B100B900BA00C200C300FF30A500DF
:1004F0007C22A50B782A0800FF30A600A60B7E2AD6
:10050000080003138312031100302802031910227C
:1005100003110130280203191622031102302802A8
:10052000031926220311033028020319362203116E
:1005300004302802031946220800031107302F0255
:10054000031DA52A221505148511031103302F025E
:10055000031DAD2A2211051085150311073038023D
:10056000031DB52AA21585140512031103303802A4
:10057000031DBD2AA2118510051603110730410283
:10058000031DC52A221605158512031103304102E9
:10059000031DCD2A221205118516080003138316A8
:1005A0000F178F120F120F140800031783168901FB
:1005B0008801031383168601061486140615850127
:1005C00087018801811315149514151503138312DF
:1005D000850186018701880108000313831616141C
:1005E000961416150313831206080B100800031344
:1005F00083168112811101118110011403138312DA
:100600001823080003138312901610129010101470
:100610001C2308000313831292141215921512164C
:1006200092161217031383168C14F43092000800EC
:100630007D3081000B11080003138312DC308E0023
:100640000B308F000C1008008B178B150B108B16BE
:080650000C100C140B1708003C
:04400E00C430FF3F7C
:00000001FF
